:020000040000FA
:100000000C9462000C948A000C948A000C948A0070
:100010000C948A000C948A000C948A000C948A0038
:100020000C948A000C948A000C948A000C948A0028
:100030000C948A000C948A000C948A000C948A0018
:100040000C9492070C948A000C9402080C94DC0720
:100050000C948A000C948A000C948A000C948A00F8
:100060000C9434080C948A0000000000240027003F
:100070002A0000000000250028002B0000000008D6
:10008000000201000003040700000000000000005F
:1000900000000000230026002900040404040404D6
:1000A0000404020202020202030303030303010227
:1000B00004081020408001020408102001020408F6
:1000C0001020980911241FBECFEFD8E0DEBFCDBFAE
:1000D00011E0A0E0B1E0E2E0F1E202C005900D9293
:1000E000AA39B107D9F723E0AAE9B1E001C01D920E
:1000F000AB32B207E1F710E0C2E6D0E004C02197CE
:10010000FE010E947910C136D107C9F70E94FF098C
:100110000C947F100C940000CF92DF92EF92FF922C
:10012000CF93DF93B0911F03A0E08111AB2F80919B
:10013000200390E0880F991FAC0140575F4FC0909B
:100140002503D0902603E0902703F090280330E0A9
:1001500020E0FA01C591D491E881B90190E080E0F6
:10016000EB23EA130AC02F5F3F4F6C157D058E0508
:100170009F0578F36FEF7FEFCB01DF91CF91FF9079
:10018000EF90DF90CF900895FC01538D448D252F83
:1001900030E0842F90E0821B930B541710F0CF9621
:1001A000089501970895FC01918D828D981761F053
:1001B000A28DAE0FBF2FB11D5D968C91928D9F5F6A
:1001C0009F73928F90E008958FEF9FEF0895FC0149
:1001D000918D828D981731F0828DE80FF11D858DFC
:1001E00090E008958FEF9FEF0895FC01918D228D8F
:1001F000892F90E0805C9F4F821B91098F73992714
:100200000895FC01A48DA80FB92FB11DA35ABF4FAB
:100210002C91848D90E001968F739927848FA68905
:10022000B7892C93A089B1898C91837080648C9359
:10023000938D848D981306C00288F389E02D808108
:100240008F7D80830895EF92FF920F931F93CF933A
:10025000DF93EC0181E0888F9B8D8C8D98131AC001
:10026000E889F989808185FF15C09FB7F894EE89E8
:10027000FF896083E889F989808183708064808345
:100280009FBF81E090E0DF91CF911F910F91FF9090
:10029000EF900895F62E0B8D10E00F5F1F4F0F7338
:1002A0001127E02E8C8D8E110CC00FB607FCFACFF3
:1002B000E889F989808185FFF5CFCE010E9401018F
:1002C000F1CFEB8DEC0FFD2FF11DE35AFF4FF082C4
:1002D0009FB7F8940B8FEA89FB8980818062CFCF2A
:1002E000CF93DF93EC01888D8823B9F0AA89BB896D
:1002F000E889F9898C9185FD03C0808186FD0DC058
:100300000FB607FCF7CF8C9185FFF2CF808185FF78
:10031000EDCFCE010E940101E9CFDF91CF91089589
:1003200083E692E00E94F50021E0892B09F420E0A9
:10033000822F089580E090E0892B29F00E9490019F
:1003400081110C940000089590E0FC01E458FF4FE7
:100350002491FC01E255FF4F3491FC01E656FF4F1A
:10036000E491EE23C9F0222339F0233001F1A8F4FF
:10037000213019F1223029F1F0E0EE0FFF1FEE5885
:10038000FF4FA591B4918FB7F894EC91611126C0FD
:1003900030953E233C938FBF08952730A9F0283035
:1003A000C9F0243049F7809180008F7D03C080918F
:1003B00080008F7780938000DFCF84B58F7784BDF6
:1003C000DBCF84B58F7DFBCF8091B0008F7780939A
:1003D000B000D2CF8091B0008F7DF9CF3E2BDACF25
:1003E000CF93DF9390E0FC01E255FF4F24918656B6
:1003F0009F4FFC0184918823C9F090E0880F991FDA
:10040000FC01E859FF4FA591B491FC01EE58FF4F54
:10041000C591D49161110DC09FB7F8948C9120952E
:1004200082238C938881282328839FBFDF91CF91DB
:100430000895623051F49FB7F8943C91822F8095D3
:1004400083238C93E8812E2BEFCF8FB7F894EC9118
:100450002E2B2C938FBFEACF3FB7F89480915B028D
:1004600090915C02A0915D02B0915E0226B5A89BBE
:1004700005C02F3F19F00196A11DB11D3FBFBA2F36
:10048000A92F982F8827BC01CD01620F711D811DF6
:10049000911D42E0660F771F881F991F4A95D1F77B
:1004A00008958F929F92AF92BF92CF92DF92EF9278
:1004B000FF924B015C010E942C026B017C010E94A7
:1004C0002C026C197D098E099F09683E73408105D5
:1004D0009105A8F321E0821A9108A108B10888EEDD
:1004E000C80E83E0D81EE11CF11C81149104A10404
:1004F000B10429F7FF90EF90DF90CF90BF90AF90BD
:100500009F908F900895CF92DF92EF92FF920F937A
:100510001F93CF93DF93CDB7DEB7C054D1400FB652
:10052000F894DEBF0FBECDBF2FB7F89480915F0265
:1005300090916002A0916102B09162022FBF409140
:1005400021035091220360912303709124038C01B5
:100550009D01041B150B260B370BB901A801403D6B
:1005600057406105710590F480912903C05CDE4F0E
:100570000FB6F894DEBF0FBECDBFDF91CF911F91B4
:100580000F91FF90EF90DF90CF900895809321031B
:1005900090932203A0932303B093240310921C038F
:1005A00010921B0310921A03109219031092180351
:1005B00062E080911D030E94F00161E070E080E044
:1005C00090E00E94510261E080911D030E94F001C1
:1005D00060E080911D030E94A40180911E0385515B
:1005E000823020F58BE291E10197F1F762E0809192
:1005F0001D030E94F00180912A0390E08230910552
:1006000038F0880F991F880F991F05970197F1F708
:10061000F89480E00E948C006F3F7F4F8F4F9F4F78
:1006200061F410922903789480E0A0CF64E170E037
:1006300080E090E00E945102D9CF81E00E948C00BE
:100640006F3F7F4F8F4F9F4F61F38E010F5F1F4FA3
:100650006E018FEBC81A8EEFD80A780180E00E94F5
:100660008C00F701608371838283938381E00E9411
:100670008C00F7016483758386839783F8E0EF0E1F
:10068000F11CEC14FD0451F7789430E020E0F801FF
:10069000C080D180E280F38044815581668177817A
:1006A000FFEFCF16DF06EF06FF0631F04F3F8FEF6B
:1006B00058076807780719F410922903B5CFF90194
:1006C00083E0F595E7958A95E1F7E85EFC4F808138
:1006D000880FC416D506E606F70610F180832F5F53
:1006E0003F4F085F1F4F2832310589F640911C03A8
:1006F0002091180380911903280F3327331F80910D
:100700001A03280F311D80911B03820F932F911D17
:1007100099274817190681F681E08093290326CF8F
:100720008160DCCF08950895AF92BF92CF92DF929F
:10073000EF92FF920F931F93CF93DF936C017B0196
:100740008B01040F151FEB015E01AE18BF08C01727
:10075000D10759F06991D601ED91FC910190F0819A
:10076000E02DC6010995892B79F7C501DF91CF915D
:100770001F910F91FF90EF90DF90CF90BF90AF90BF
:10078000089508952091DB01260F3327331F21326E
:100790003105ECF420912402FC0190E080E024304B
:1007A00069F082E00895A091DB012191AC014554EC
:1007B0005E4FA40FB52FB11D2C930196861798F3A9
:1007C0008091DB01680F6093DB0180E0089581E098
:1007D00008951092240281E0809323021092FE017A
:1007E00061E082E10E94A40161E083E10E94A40132
:1007F000E9EBF0E080818E7F808380818D7F808334
:1008000088E48093B80085E48093BC000895CF937A
:10081000DF9391E09093BA018823B9F0C091B800BA
:10082000D091BA008091BC008A7B8093BC0060E0CC
:1008300082E10E94A40160E083E10E94A4010E9481
:10084000E903D093BA00C093B800DF91CF91089527
:100850000895E091530280915202E81730F4F0E0DD
:10086000E656FE4F808190E008958FEF9FEF089548
:1008700090915302809152022FEF3FEF981748F466
:10088000E92FF0E0E656FE4F208130E09F5F909325
:100890005302C90108958091520290915302891B1D
:1008A000990B0895CF92DF92EF92FF920F931F93CF
:1008B000CF93DF937C01CB018A0120912A0222236E
:1008C00089F0EB016B01C40ED51ECC15DD0569F076
:1008D0006991D701ED91FC910190F081E02DC70164
:1008E0000995F3CF642F0E94C203C801DF91CF9115
:1008F0001F910F91FF90EF90DF90CF900895CF93CD
:10090000DF931F92CDB7DEB7698320912A0222239D
:10091000F9F020915002203258F021E030E0FC0143
:100920003383228390E080E00F90DF91CF91089590
:1009300080915102E82FF0E0E55DFD4F99819083B1
:100940008F5F809351028093500281E090E0ECCF62
:1009500061E0CE0101960E94C203F7CFCF92DF92F1
:10096000EF92FF920F931F93CF93DF93FC01C4810B
:1009700021E020932A02C0934B0210925102109260
:1009800050028385682B80E093E00E947F04D09121
:100990005002D13208F092C00E942C026B017C01FF
:1009A00080912402811165C082E08093240281E05D
:1009B000809323028FEF8093220210922102D09322
:1009C0002002ABE2B2E0E0E0F2E080E0D81385C0C4
:1009D0001092FF018091FF01CC0FC82BC093FF0143
:1009E0008091FE01813009F07CC01092FE010E94CE
:1009F0002C026B017C018091FF018093BB008091F0
:100A0000260290912702A0912802B0912902892BF9
:100A10008A2B8B2B99F00E942C02009126021091B8
:100A2000270220912802309129026C197D098E0934
:100A30009F090617170728073907E0F18091BC00C6
:100A400083FDD9CF85EC8093BC000E942C026B0102
:100A50007C0180912402823009F445C080912202F9
:100A60008F3F61F180912202803241F18091220218
:100A700025C08091260290912702A0912802B09172
:100A80002902892B8A2B8B2B09F48ACF0E942C02F6
:100A9000009126021091270220912802309129020C
:100AA0006C197D098E099F09061717072807390752
:100AB00008F076CF809125020E940704109251021F
:100AC0001092500210922A02DF91CF911F910F9144
:100AD000FF90EF90DF90CF9008959D9191938F5F5D
:100AE00075CF85EEB0CF8091260290912702A0911C
:100AF0002802B0912902892B8A2B8B2B09F4A9CFCC
:100B00000E942C02009126021091270220912802B7
:100B1000309129026C197D098E099F090617170764
:100B20002807390708F095CFC5CF90E080E00895F9
:100B3000FC0101900020E9F73197AF01481B590BE8
:100B4000BC018CE093E00C9494038F929F92AF923F
:100B5000BF920F931F93CF93DF93CDB7DEB7A197CB
:100B60000FB6F894DEBF0FBECDBF19A2423008F415
:100B70004AE08E010F5D1F4F842E912CB12CA12CC9
:100B8000A50194010E94050EE62FB901CA01EA30C1
:100B9000F4F4E05DD801EE938D01232B242B252B5B
:100BA00079F790E080E0109719F0CD010E94980548
:100BB000A1960FB6F894DEBF0FBECDBFDF91CF91E7
:100BC0001F910F91BF90AF909F908F900895E95C17
:100BD000E1CF0C9498050F931F93CF938C01C62FF0
:100BE0000E94AE046C2F6460C8010E94AE046C2F9A
:100BF0006B7FC8010E94AE0483EC90E00197F1F78F
:100C0000CF911F910F9108950F931F93CF93DF936F
:100C10008C01D62FC42F607F642B0E94EB0580E1EE
:100C2000D89FB00111246C2BC801DF91CF911F9187
:100C30000F910C94EB05CF93DF93CDB7DEB72897D8
:100C40000FB6F894DEBF0FBECDBF98E0E0E0F1E054
:100C5000DE01119601900D929A95E1F7909114039F
:100C6000961710F46FEF690F262F30E0220F331F15
:100C700041E050E04C0F5D1F240F351FF9016081EA
:100C8000680F606840E08CE093E028960FB6F89417
:100C9000DEBF0FBECDBFDF91CF910C94040641E0C3
:100CA0000E94040681E090E00895CF92DF92EF92D7
:100CB000FF926B017C0141E06DE28CE093E00E94C9
:100CC000040666277727CB016C197D098E099F09D9
:100CD0004AE00E94A5050196FF90EF90DF90CF902B
:100CE00008954F925F926F927F928F929F92AF92F0
:100CF000BF92CF92DF92EF92FF920F931F93CF9309
:100D00006B017C01742EAC019B010E94741088233E
:100D100099F088E391E0CF911F910F91FF90EF90B0
:100D2000DF90CF90BF90AF909F908F907F906F900B
:100D30005F904F900C94980546015701E894B7F8DE
:100D40002FEF3FEF4FE75FE7C501B4010E9474103A
:100D500081110DC02FEF3FEF4FE75FE7C501B401F1
:100D60000E94A30E18161CF48CE391E0D4CF2FEF51
:100D70003FEF4FE75FE4C701B6010E94021018166B
:100D80001CF480E491E0C7CF2FEF3FEF4FE75FEC1B
:100D9000C701B6010E94A30E87FDF3CF20E030E02B
:100DA000A901C701B6010E94A30E10E000E087FF71
:100DB0000CC041E06DE28CE093E00E940406F7FA7B
:100DC000F094F7F8F09401E010E0C0E060E070E02B
:100DD00080E09FE37C1641F020E030E040E251E407
:100DE0000E94A80ECF5FF6CFA70196010E94370E92
:100DF0004B015C010E94210F2B013C014AE00E9443
:100E0000A505080F191FCC23C9F1C301B2010E9427
:100E1000500F9B01AC01C501B4010E94360E4B017D
:100E20005C0141E06EE28CE093E00E9404060F5FFB
:100E30001F4FC15018F120E030E040E251E4C501FD
:100E4000B4010E9407102B013C010E94210F4B01AD
:100E5000B12CA12C4AE0C501B4010E94A505080FE0
:100E6000191FC501B4010E94500F9B01AC01C301C1
:100E7000B2010E94360E4B015C01DBCFC801CF915D
:100E80001F910F91FF90EF90DF90CF90BF90AF90A8
:100E90009F908F907F906F905F904F90089540E06B
:100EA00061E08CE093E00E9404068BE39FE10197F0
:100EB000F1F7089585ED8093BC0080912602909112
:100EC0002702A0912802B09129020796A11DB11D09
:100ED00023E0B695A795979587952A95D1F7209108
:100EE000BC0024FD03C01092240208954091260204
:100EF000509127026091280270912902452B462BC0
:100F0000472B69F30097A105B10541F02AE22A9524
:100F1000F1F700C00197A109B109E1CF8091250245
:100F20000C9407041F920F920FB60F9211242F9367
:100F30003F938F939F93AF93BF9380915F02909164
:100F40006002A0916102B091620230915A0223E0E6
:100F5000230F2D3758F50196A11DB11D20935A027C
:100F600080935F0290936002A0936102B09362024B
:100F700080915B0290915C02A0915D02B0915E0253
:100F80000196A11DB11D80935B0290935C02A0931A
:100F90005D02B0935E02BF91AF919F918F913F919F
:100FA0002F910F900FBE0F901F90189526E8230FDA
:100FB0000296A11DB11DD2CF1F920F920FB60F92B4
:100FC00011242F933F934F935F936F937F938F934E
:100FD0009F93AF93BF93EF93FF9383E692E00E94BA
:100FE0000101FF91EF91BF91AF919F918F917F91FF
:100FF0006F915F914F913F912F910F900FBE0F9086
:101000001F9018951F920F920FB60F9211242F93D5
:101010008F939F93EF93FF93E0917302F09174028B
:101020008081E0917902F0917A0282FD1BC090816B
:1010300080917C028F5F8F7320917D02821741F037
:10104000E0917C02F0E0ED59FD4F958F80937C029A
:10105000FF91EF919F918F912F910F900FBE0F9065
:101060001F9018958081F4CF1F920F920FB60F92A8
:1010700011242F933F934F935F936F937F938F939D
:101080009F93AF93BF93EF93FF938091B900887FB5
:10109000803609F44AC0F0F5883209F4A7C018F583
:1010A000803109F49BC0B8F4882309F4F9C0883072
:1010B00009F494C0FF91EF91BF91AF919F918F91EF
:1010C0007F916F915F914F913F912F910F900FBE44
:1010D0000F901F901895883109F488C0803251F71D
:1010E0008093220214C0803409F49DC040F4803300
:1010F000B9F38833F9F68093220285ECB0C08035CD
:1011000009F485C0883509F496C0883499F60E94A0
:101110005A07D0CF883909F48CC038F5883729F0C0
:1011200050F4883611F0803729F683E0809324024A
:101130001092FD0157C0883809F47BC0803919F03E
:10114000803809F0B7CF8091FD01803208F071C07E
:10115000E091FD0181E08E0F8093FD018091BB0045
:10116000F0E0E352FE4F80833DC0803B39F0E0F475
:10117000803A09F479C0883A09F09CCF84E08093E2
:1011800024021092DC011092DB01E0914C02F091FC
:101190004D0209958091DB0181110FC081E08093A0
:1011A000DB011092BB0109C0803C09F4A6CF883C4A
:1011B00009F4A3CF883B09F07DCFE091DC0181E009
:1011C0008E0F8093DC01F0E0E554FE4F8081809328
:1011D000BB009091DC018091DB0129C08091FF016F
:1011E0008093BB0085EC8093BC0064CF909121027A
:1011F00080912002981758F5E091210281E08E0F2E
:1012000080932102F0E0E050FE4F8081E9CFE09131
:10121000210281E08E0F809321028091BB00F0E0DB
:10122000E050FE4F80839091210280912002981718
:10123000C8F285E8D8CFE091210281E08E0F80933B
:1012400021028091BB00F0E0E050FE4F808380914E
:10125000230281115CCF81E08093FE0184EA8093B8
:10126000BC001092240226CF85EC8093BC00109223
:1012700024028091FD01803230F4E091FD01F0E024
:10128000E352FE4F10826091FD0170E0E0914E024A
:10129000F0914F028DED91E009951092FD010ACF7A
:1012A0001092220234CFCF92DF92EF92FF920F93EF
:1012B0001F93E82FF92F05C00150110921093109A9
:1012C00061F1908196239417B9F305C0015011097B
:1012D0002109310911F1908196239413F7CFC12C84
:1012E000D12CE12CF12C0AC08FEFC81AD80AE80AD9
:1012F000F80A0C151D052E053F0579F0808186231F
:10130000841791F36C2D7D2D8E2D9F2D1F910F91A4
:10131000FF90EF90DF90CF90089560E070E080E064
:1013200090E01F910F91FF90EF90DF90CF90089584
:10133000E3E6F2E01382128288EE93E0A0E0B0E0F0
:1013400084839583A683B7832CE031E031832083A7
:1013500025EC30E03587248724EC30E0378726877A
:1013600020EC30E0318B208B21EC30E0338B228B72
:1013700022EC30E0358B248B26EC30E0378B268B4B
:10138000118E128E138E148EE0E0F3E0138212821F
:1013900084839583A683B7838EE191E091838083D4
:1013A000A8E1B3E084E015968C93159796E1169624
:1013B0009C931697E2EBF0E0E4911796EC93179765
:1013C000EEE9F0E0E4911896EC93189740E85EE3BC
:1013D00060E070E01D964D935D936D937C93509704
:1013E000ECE0F3E01382128220E331E031832083CA
:1013F00097E2948394E19187828713860895789485
:1014000084B5826084BD84B5816084BD85B5826009
:1014100085BD85B5816085BD80916E0081608093BA
:101420006E00109281008091810082608093810023
:101430008091810081608093810080918000816033
:10144000809380008091B10084608093B10080918E
:10145000B00081608093B00080917A0084608093B6
:101460007A0080917A00826080937A0080917A007D
:10147000816080937A0080917A00806880937A00FE
:101480001092C10010925302109252021092510217
:10149000109250020E94E90382E993E090934D027A
:1014A00080934C0283E993E090934F0280934E0225
:1014B0000E94E9031092110380911603823018F004
:1014C00098E0909311038093140362E370E080E04E
:1014D00090E00E945102609117038CE093E00E941B
:1014E000AE0468EE73E080E090E00E94510260E399
:1014F0008CE093E00E94EB05CBE4D6E4CE010197AB
:10150000F1F760E38CE093E00E94EB052197F1F79F
:1015100060E38CE093E00E94EB0583E592E00197A5
:10152000F1F760E28CE093E00E94EB05609111031B
:10153000606240E08CE093E00E94040684E08093C7
:10154000120340E06CE08CE093E00E9404060E94ED
:101550004F0782E08093130340E066E08CE093E065
:101560000E94040640E062E08CE093E00E940406E2
:101570008BE39FE10197F1F788E08093170360E028
:101580008CE093E00E94AE0462E080911D030E9413
:10159000F0012FB7F89480915F0290916002A091C2
:1015A0006102B09162022FBF805D9740A109B1092D
:1015B0008093210390932203A0932303B0932403E9
:1015C00087E380932A0361E085E00E94F00161E0F7
:1015D00083E00E94F00160E082E00E94F00161E09F
:1015E00089E00E94F00161E086E00E94F00161E084
:1015F00087E00E94F00161E088E00E94F00160E075
:1016000085E00E94A40160E089E00E94A40160E0FE
:1016100086E00E94A40160E087E00E94A40160E0EF
:1016200088E00E94A4010E944F0760E080E00E94D1
:101630001B0684E491E00E94E90561E080E00E94DD
:101640001B0682E591E00E94E9056CED75E080E003
:1016500090E00E9451020E948302882349F0809109
:101660001E038B3028F08D3050F085518230C0F150
:10167000812C912C60ECA62E6FE7B62E1EC06091D7
:10168000190370E090E080E00E94520F2DEC3CECDA
:101690004CEC5DE30E9407106B017C016091180324
:1016A00070E090E080E00E94520F9B01AC01C70106
:1016B000B6010E94370E4B015C010E948302882311
:1016C00041F080911E038C3009F4EAC1D8F48B30CC
:1016D00091F1C12CD12C40ECE42E4FE7F42E55C0F3
:1016E000609118037091190376276727762790E099
:1016F00080E00E94500F2DEC3CEC4CEC5DE30E942E
:101700000710D9CF8551823020F7C0911A036C2F72
:1017100070E0762F662766277F7780911B03682B02
:1017200090E080E00E94500F2DEC3CEC4CEC5DE32F
:101730000E940710D1C160911A0370E090E080E030
:101740000E94500F6B017C01C0911B03C7FF0AC0B0
:10175000AC019B0160E070E080E89FEB0E94360ED8
:101760006B017C01CF706C2F70E090E080E00E94F4
:10177000520F2DEC3CEC4CEC5DE30E940710A701EE
:1017800096010E94370E6B017C0160E083E00E94AD
:10179000A40183E090E00197F1F761E083E00E940B
:1017A000A40183E290E00197F1F760E083E00E94FA
:1017B000A401E0EBF0E06491ECE9F0E08491E82F23
:1017C000F0E0EE0FFF1FE057FF4F8591949100E38B
:1017D00015E720E030E0462F0E945309611571059E
:1017E0008105910509F494C16F5F7F4F8F4F9F4F23
:1017F0009F70611571058105910509F489C10E94E9
:10180000500F20E030E048E652E40E94A80E2B0181
:101810003C01AC019B010E947410811179C120E050
:1018200030E040EA50E4C301B2010E94A30E87FDFC
:101830005CC120E030E040EF51E4C301B2010E94FE
:10184000021018160CF458C1A301920160E070E078
:1018500080EF91E40E94360E20E030E048EC52E444
:101860000E94071020E030E048EC51E40E94A80EEE
:101870002B013C0120E030E0A9010E94A30ED0E042
:10188000C0E087FD20C020E030E048EC52E4C30116
:10189000B2010E940210C4E6D0E01816A4F020E0C5
:1018A00030E0A901C301B2010E94021020E030E043
:1018B00040E05FE387FD27C1C301B2010E94370EFC
:1018C0000E941A0FEB01F2E4F0937C0080917A0001
:1018D000806480937A0080917A0086FDFCCF20910D
:1018E000780030917900032E000C440B550B2C5AD4
:1018F0003D4041095109A4E6B0E00E94FA0D24E000
:1019000037EF4FEF5FEF0E94DB0D8901190125369C
:1019100031051CF084E6282E312C37FE02C0312C14
:10192000212C809154028111F6C00F3111051CF455
:1019300081E0809354026091540285E00E94A401EA
:10194000CB30D10508F4EEC0043111050CF4EAC027
:101950001092590260E089E00E94A401D7FD06C000
:101960007724739461E0CB30D10514F0712C60E0E2
:1019700086E00E94A40161E00E3111050CF060E0E8
:1019800087E00E94A40161E06725023311050CF491
:1019900060E088E00E94A4010E944F0760E080E0C0
:1019A0000E941B0682E691E00E94E905A7019601CC
:1019B000C701B6010E947410882309F4E6C089E6C5
:1019C00091E00E94E90561E080E00E941B068FE63D
:1019D00091E00E94E905A5019401C501B4010E94AE
:1019E00074108111DAC041E0C501B4010E94710692
:1019F00086E791E00E94E90562E080E00E941B0614
:101A000089E791E00E94E90589E691E0D7FD0AC0E7
:101A10004AE0BE010D2E000C880B990B0E94A50513
:101A200086E791E00E94E90563E080E00E941B06E2
:101A300080E891E00E94E905B101330C880B990B15
:101A40004AE00E94A50586E791E00E94E9052B97F0
:101A500040F462E08CE00E941B0687E891E00E945F
:101A6000E9050F3111050CF09BC063E08CE00E948A
:101A70001B068DE891E00E94E90564EF71E080E0CB
:101A800090E00E94510240E050E0452B09F4E3CD84
:101A90000E949001882309F4DECD0E940000DBCD76
:101AA000C0911A036C2F70E090E080E00E94500F0C
:101AB0006B017C0160911B036F7070E090E080E02F
:101AC0000E94520F2DEC3CEC4CEC5DE30E940710A1
:101AD000A70196010E94370E6B017C01C7FF55CE0E
:101AE000F7FAF094F7F8F09450CE412C512C20EAFC
:101AF000622E20E4722EA8CE412C512C90EF692E3C
:101B000091E4792EA1CEC301B2010E94360ED8CE47
:101B1000CFEFDFEFD8CE023311050CF40CCF1092CB
:101B2000540209CF8FB7F89440905F025090600242
:101B300060906102709062028FBF80915502909117
:101B40005602A0915702B0915802A3019201281B9E
:101B5000390B4A0B5B0BDA01C901803D9740A105A7
:101B6000B10508F4FBCE8091590261E068276093CB
:101B7000590289E00E94A4014092550250925602F7
:101B80006092570270925802E9CE41E0C701B60157
:101B90000E9471068CE691E014CF89E691E02ACF8D
:101BA000023311050CF469CF63E08CE00E941B0640
:101BB00083E991E060CF052E97FB1EF400940E940C
:101BC000F20D57FD07D00E94050E07FC03D04EF41E
:101BD0000C94F20D50954095309521953F4F4F4F05
:101BE0005F4F089590958095709561957F4F8F4FC9
:101BF0009F4F08950E94270EA59F900DB49F900DB2
:101C0000A49F800D911D11240895A1E21A2EAA1BF4
:101C1000BB1BFD010DC0AA1FBB1FEE1FFF1FA2179C
:101C2000B307E407F50720F0A21BB30BE40BF50B99
:101C3000661F771F881F991F1A9469F76095709522
:101C4000809590959B01AC01BD01CF010895A29FA5
:101C5000B001B39FC001A39F700D811D1124911D80
:101C6000B29F700D811D1124911D08955058BB27FE
:101C7000AA270E944E0E0C94C80F0E94BA0F38F08B
:101C80000E94C10F20F039F49F3F19F426F40C9400
:101C9000B70F0EF4E095E7FB0C94B10FE92F0E940B
:101CA000D90F58F3BA17620773078407950720F016
:101CB00079F4A6F50C94FB0F0EF4E0950B2EBA2FD9
:101CC000A02D0B01B90190010C01CA01A001112442
:101CD000FF27591B99F0593F50F4503E68F11A16EE
:101CE000F040A22F232F342F4427585FF3CF46957F
:101CF00037952795A795F0405395C9F77EF41F16A1
:101D0000BA0B620B730B840BBAF09150A1F0FF0F6A
:101D1000BB1F661F771F881FC2F70EC0BA0F621F56
:101D2000731F841F48F4879577956795B795F79546
:101D30009E3F08F0B0CF9395880F08F09927EE0FDB
:101D40009795879508950E948D0F08F481E0089576
:101D50000E94BC0E0C94C80F0E94C10F58F00E9444
:101D6000BA0F40F029F45F3F29F00C94B10F5111E4
:101D70000C94FC0F0C94B70F0E94D90F68F39923B1
:101D8000B1F3552391F3951B550BBB27AA27621777
:101D90007307840738F09F5F5F4F220F331F441F84
:101DA000AA1FA9F335D00E2E3AF0E0E832D09150B8
:101DB0005040E695001CCAF72BD0FE2F29D0660FA5
:101DC000771F881FBB1F261737074807AB07B0E8E8
:101DD00009F0BB0B802DBF01FF2793585F4F3AF0EE
:101DE0009E3F510578F00C94B10F0C94FC0F5F3FAF
:101DF000E4F3983ED4F3869577956795B795F79574
:101E00009F5FC9F7880F911D9695879597F908955B
:101E1000E1E0660F771F881FBB1F621773078407F7
:101E2000BA0720F0621B730B840BBA0BEE1F88F706
:101E3000E09508950E94210F6894B1110C94FC0F55
:101E400008950E94E10F88F09F5798F0B92F9927C5
:101E5000B751B0F0E1F0660F771F881F991F1AF095
:101E6000BA95C9F714C0B13091F00E94FB0FB1E0F0
:101E700008950C94FB0F672F782F8827B85F39F0EF
:101E8000B93FCCF3869577956795B395D9F73EF42E
:101E900090958095709561957F4F8F4F9F4F0895D6
:101EA000E89409C097FB3EF49095809570956195F4
:101EB0007F4F8F4F9F4F9923A9F0F92F96E9BB27AA
:101EC0009395F695879577956795B795F111F8CF26
:101ED000FAF4BB0F11F460FF1BC06F5F7F4F8F4F91
:101EE0009F4F16C0882311F096E911C0772321F087
:101EF0009EE8872F762F05C0662371F096E8862F1F
:101F000070E060E02AF09A95660F771F881FDAF775
:101F1000880F9695879597F90895990F0008550FA2
:101F2000AA0BE0E8FEEF16161706E807F907C0F05F
:101F300012161306E407F50798F0621B730B840B67
:101F4000950B39F40A2661F0232B242B252B21F441
:101F500008950A2609F4A140A6958FEF811D811DE1
:101F6000089597F99F6780E870E060E008959FEF1B
:101F700080EC089500240A94161617061806090620
:101F8000089500240A9412161306140605060895EF
:101F9000092E0394000C11F4882352F0BB0F40F477
:101FA000BF2B11F460FF04C06F5F7F4F8F4F9F4FB7
:101FB000089557FD9058440F551F59F05F3F71F039
:101FC0004795880F97FB991F61F09F3F79F08795A0
:101FD0000895121613061406551FF2CF4695F1DF29
:101FE00008C0161617061806991FF1CF86957105B9
:101FF000610508940895E894BB2766277727CB01ED
:1020000097F908950E948D0F08F48FEF08950E94AC
:102010001A100C94C80F0E94BA0F38F00E94C10F1A
:1020200020F0952311F00C94B10F0C94B70F1124EC
:102030000C94FC0F0E94D90F70F3959FC1F3950F7C
:1020400050E0551F629FF001729FBB27F00DB11D3C
:10205000639FAA27F00DB11DAA1F649F6627B00DCC
:10206000A11D661F829F2227B00DA11D621F739FB5
:10207000B00DA11D621F839FA00D611D221F749FC3
:102080003327A00D611D231F849F600D211D822F0A
:10209000762F6A2F11249F5750409AF0F1F0882331
:1020A0004AF0EE0FFF1FBB1F661F771F881F91505E
:1020B0005040A9F79E3F510580F00C94B10F0C944D
:1020C000FC0F5F3FE4F3983ED4F3869577956795D0
:1020D000B795F795E7959F5FC1F7FE2B880F911D88
:1020E0009695879597F908950E948D0F880B990B07
:1020F0000895EE0FFF1F0590F491E02D0994F894D8
:10210000FFCF000040001400540000000000230135
:102110009403C4007001F500D300E7000000000044
:102120007F045204950528044B0438042904000058
:1021300000004F0694039505C1036E616E00696E41
:1021400066006F766600536D617274204661726D31
:1021500065727300496E69742073656E736F727374
:102160002E2E2E0054656D703A20002D2D00204338
:102170000048756D203A200020250054616E6B3AAE
:102180002000536F696C3A2000454D505459005758
:0C21900041544552004F4B20202000001D
:107E0000112484B714BE81FFF0D085E080938100F7
:107E100082E08093C00088E18093C10086E0809377
:107E2000C20080E18093C4008EE0C9D0259A86E02C
:107E300020E33CEF91E0309385002093840096BBD3
:107E4000B09BFECF1D9AA8958150A9F7CC24DD24C4
:107E500088248394B5E0AB2EA1E19A2EF3E0BF2EE7
:107E6000A2D0813461F49FD0082FAFD0023811F036
:107E7000013811F484E001C083E08DD089C08234E0
:107E800011F484E103C0853419F485E0A6D080C0E4
:107E9000853579F488D0E82EFF2485D0082F10E0AE
:107EA000102F00270E291F29000F111F8ED06801E7
:107EB0006FC0863521F484E090D080E0DECF843638
:107EC00009F040C070D06FD0082F6DD080E0C81688
:107ED00080E7D80618F4F601B7BEE895C0E0D1E017
:107EE00062D089930C17E1F7F0E0CF16F0E7DF06D8
:107EF00018F0F601B7BEE89568D007B600FCFDCFD4
:107F0000A601A0E0B1E02C9130E011968C91119780
:107F100090E0982F8827822B932B1296FA010C0160
:107F200087BEE89511244E5F5F4FF1E0A038BF0790
:107F300051F7F601A7BEE89507B600FCFDCF97BE46
:107F4000E89526C08437B1F42ED02DD0F82E2BD052
:107F50003CD0F601EF2C8F010F5F1F4F84911BD097
:107F6000EA94F801C1F70894C11CD11CFA94CF0C13
:107F7000D11C0EC0853739F428D08EE10CD085E9AC
:107F80000AD08FE07ACF813511F488E018D01DD067
:107F900080E101D065CF982F8091C00085FFFCCF94
:107FA0009093C60008958091C00087FFFCCF809118
:107FB000C00084FD01C0A8958091C6000895E0E648
:107FC000F0E098E1908380830895EDDF803219F02E
:107FD00088E0F5DFFFCF84E1DECF1F93182FE3DFCA
:107FE0001150E9F7F2DF1F91089580E0E8DFEE27F6
:047FF000FF270994CA
:027FFE00040479
:00000001FF
